{
  "_format": "hh-sol-artifact-1",
  "contractName": "Faucet",
  "sourceName": "contracts/Faucet.sol",
  "abi": [
    {
      "inputs": [
        {
          "internalType": "address",
          "name": "owner",
          "type": "address"
        }
      ],
      "name": "OwnableInvalidOwner",
      "type": "error"
    },
    {
      "inputs": [
        {
          "internalType": "address",
          "name": "account",
          "type": "address"
        }
      ],
      "name": "OwnableUnauthorizedAccount",
      "type": "error"
    },
    {
      "anonymous": false,
      "inputs": [
        {
          "indexed": false,
          "internalType": "uint256",
          "name": "_amount",
          "type": "uint256"
        }
      ],
      "name": "DepositEther",
      "type": "event"
    },
    {
      "anonymous": false,
      "inputs": [
        {
          "indexed": false,
          "internalType": "uint256",
          "name": "_amount",
          "type": "uint256"
        }
      ],
      "name": "DepositUSDT",
      "type": "event"
    },
    {
      "anonymous": false,
      "inputs": [
        {
          "indexed": true,
          "internalType": "address",
          "name": "previousOwner",
          "type": "address"
        },
        {
          "indexed": true,
          "internalType": "address",
          "name": "newOwner",
          "type": "address"
        }
      ],
      "name": "OwnershipTransferred",
      "type": "event"
    },
    {
      "anonymous": false,
      "inputs": [
        {
          "indexed": false,
          "internalType": "address",
          "name": "_address",
          "type": "address"
        },
        {
          "indexed": false,
          "internalType": "uint256",
          "name": "_usdtReceive",
          "type": "uint256"
        },
        {
          "indexed": false,
          "internalType": "uint256",
          "name": "_etherReceive",
          "type": "uint256"
        }
      ],
      "name": "ReceiveFaucet",
      "type": "event"
    },
    {
      "anonymous": false,
      "inputs": [
        {
          "indexed": false,
          "internalType": "address",
          "name": "_usdt",
          "type": "address"
        }
      ],
      "name": "SetUSDTAddress",
      "type": "event"
    },
    {
      "anonymous": false,
      "inputs": [
        {
          "indexed": false,
          "internalType": "uint256",
          "name": "_amount",
          "type": "uint256"
        }
      ],
      "name": "WithdrawEther",
      "type": "event"
    },
    {
      "anonymous": false,
      "inputs": [
        {
          "indexed": false,
          "internalType": "uint256",
          "name": "_amount",
          "type": "uint256"
        }
      ],
      "name": "WithdrawUSDT",
      "type": "event"
    },
    {
      "inputs": [],
      "name": "checkEtherBalance",
      "outputs": [
        {
          "internalType": "uint256",
          "name": "",
          "type": "uint256"
        }
      ],
      "stateMutability": "view",
      "type": "function"
    },
    {
      "inputs": [],
      "name": "checkUSDTBalance",
      "outputs": [
        {
          "internalType": "uint256",
          "name": "",
          "type": "uint256"
        }
      ],
      "stateMutability": "view",
      "type": "function"
    },
    {
      "inputs": [],
      "name": "depositEther",
      "outputs": [],
      "stateMutability": "payable",
      "type": "function"
    },
    {
      "inputs": [
        {
          "internalType": "address",
          "name": "",
          "type": "address"
        }
      ],
      "name": "lastReceiveTime",
      "outputs": [
        {
          "internalType": "uint256",
          "name": "",
          "type": "uint256"
        }
      ],
      "stateMutability": "view",
      "type": "function"
    },
    {
      "inputs": [],
      "name": "owner",
      "outputs": [
        {
          "internalType": "address",
          "name": "",
          "type": "address"
        }
      ],
      "stateMutability": "view",
      "type": "function"
    },
    {
      "inputs": [
        {
          "internalType": "address",
          "name": "_receiver",
          "type": "address"
        }
      ],
      "name": "receiveFaucet",
      "outputs": [],
      "stateMutability": "nonpayable",
      "type": "function"
    },
    {
      "inputs": [],
      "name": "renounceOwnership",
      "outputs": [],
      "stateMutability": "nonpayable",
      "type": "function"
    },
    {
      "inputs": [
        {
          "internalType": "uint256",
          "name": "_usdtPerTime",
          "type": "uint256"
        },
        {
          "internalType": "uint256",
          "name": "_etherPerTime",
          "type": "uint256"
        }
      ],
      "name": "setRate",
      "outputs": [],
      "stateMutability": "nonpayable",
      "type": "function"
    },
    {
      "inputs": [
        {
          "internalType": "address",
          "name": "_usdt",
          "type": "address"
        }
      ],
      "name": "setUSDTAddress",
      "outputs": [],
      "stateMutability": "nonpayable",
      "type": "function"
    },
    {
      "inputs": [
        {
          "internalType": "address",
          "name": "newOwner",
          "type": "address"
        }
      ],
      "name": "transferOwnership",
      "outputs": [],
      "stateMutability": "nonpayable",
      "type": "function"
    },
    {
      "inputs": [],
      "name": "usdt",
      "outputs": [
        {
          "internalType": "contract IERC20",
          "name": "",
          "type": "address"
        }
      ],
      "stateMutability": "view",
      "type": "function"
    },
    {
      "inputs": [],
      "name": "withdrawEther",
      "outputs": [],
      "stateMutability": "nonpayable",
      "type": "function"
    },
    {
      "inputs": [],
      "name": "withdrawUSDT",
      "outputs": [],
      "stateMutability": "nonpayable",
      "type": "function"
    }
  ],
  "bytecode": "0x608060405268056bc75e2d63100000600255662386f26fc100006003553480156200002957600080fd5b5033600073ffffffffffffffffffffffffffffffffffffffff168173ffffffffffffffffffffffffffffffffffffffff1603620000a05760006040517f1e4fbdf7000000000000000000000000000000000000000000000000000000008152600401620000979190620001c1565b60405180910390fd5b620000b181620000b860201b60201c565b50620001de565b60008060009054906101000a900473ffffffffffffffffffffffffffffffffffffffff169050816000806101000a81548173ffffffffffffffffffffffffffffffffffffffff021916908373ffffffffffffffffffffffffffffffffffffffff1602179055508173ffffffffffffffffffffffffffffffffffffffff168173ffffffffffffffffffffffffffffffffffffffff167f8be0079c531659141344cd1fd0a4f28419497f9722a3daafe3b4186f6b6457e060405160405180910390a35050565b600073ffffffffffffffffffffffffffffffffffffffff82169050919050565b6000620001a9826200017c565b9050919050565b620001bb816200019c565b82525050565b6000602082019050620001d86000830184620001b0565b92915050565b61127080620001ee6000396000f3fe6080604052600436106100c25760003560e01c8063715018a61161007f5780639695d987116100595780639695d9871461020a57806398ea5fca14610247578063e4569cfb14610251578063f2fde38b1461027a576100c2565b8063715018a6146101b15780637362377b146101c85780638da5cb5b146101df576100c2565b806316cba9d3146100c75780632f48ab7d146100f2578063354289e41461011d578063362e496b1461014857806346df2ccb1461015f57806355eba86814610188575b600080fd5b3480156100d357600080fd5b506100dc6102a3565b6040516100e99190610ce8565b60405180910390f35b3480156100fe57600080fd5b506101076102ab565b6040516101149190610d82565b60405180910390f35b34801561012957600080fd5b506101326102d1565b60405161013f9190610ce8565b60405180910390f35b34801561015457600080fd5b5061015d610374565b005b34801561016b57600080fd5b5061018660048036038101906101819190610dce565b610541565b005b34801561019457600080fd5b506101af60048036038101906101aa9190610e4c565b61055b565b005b3480156101bd57600080fd5b506101c66105de565b005b3480156101d457600080fd5b506101dd6105f2565b005b3480156101eb57600080fd5b506101f46106c2565b6040516102019190610e88565b60405180910390f35b34801561021657600080fd5b50610231600480360381019061022c9190610e4c565b6106eb565b60405161023e9190610ce8565b60405180910390f35b61024f610703565b005b34801561025d57600080fd5b5061027860048036038101906102739190610e4c565b61073c565b005b34801561028657600080fd5b506102a1600480360381019061029c9190610e4c565b610a0c565b005b600047905090565b600160009054906101000a900473ffffffffffffffffffffffffffffffffffffffff1681565b6000600160009054906101000a900473ffffffffffffffffffffffffffffffffffffffff1673ffffffffffffffffffffffffffffffffffffffff166370a08231306040518263ffffffff1660e01b815260040161032e9190610e88565b602060405180830381865afa15801561034b573d6000803e3d6000fd5b505050506040513d601f19601f8201168201806040525081019061036f9190610eb8565b905090565b61037c610a92565b6000600160009054906101000a900473ffffffffffffffffffffffffffffffffffffffff1673ffffffffffffffffffffffffffffffffffffffff166370a08231306040518263ffffffff1660e01b81526004016103d99190610e88565b602060405180830381865afa1580156103f6573d6000803e3d6000fd5b505050506040513d601f19601f8201168201806040525081019061041a9190610eb8565b90506000811161045f576040517f08c379a000000000000000000000000000000000000000000000000000000000815260040161045690610f42565b60405180910390fd5b600160009054906101000a900473ffffffffffffffffffffffffffffffffffffffff1673ffffffffffffffffffffffffffffffffffffffff1663a9059cbb6104a56106c2565b836040518363ffffffff1660e01b81526004016104c3929190610f62565b6020604051808303816000875af11580156104e2573d6000803e3d6000fd5b505050506040513d601f19601f820116820180604052508101906105069190610fc3565b507f385065297c789e6fec6d42a26bd1556c1ed9a484e1a9b7dd364daf063c15a58e816040516105369190610ce8565b60405180910390a150565b610549610a92565b81600281905550806003819055505050565b610563610a92565b80600160006101000a81548173ffffffffffffffffffffffffffffffffffffffff021916908373ffffffffffffffffffffffffffffffffffffffff1602179055507fccf072a6a79f54669f8491254bb64341eea8bd76ec7b80d1585f6af04718cc16816040516105d39190610e88565b60405180910390a150565b6105e6610a92565b6105f06000610b19565b565b60004790506000811161063a576040517f08c379a00000000000000000000000000000000000000000000000000000000081526004016106319061103c565b60405180910390fd5b6106426106c2565b73ffffffffffffffffffffffffffffffffffffffff166108fc829081150290604051600060405180830381858888f19350505050158015610687573d6000803e3d6000fd5b507f384db9fc3726c2d95cfec67f179bab3b5b3151fb5642ccb002fd2e5d3613863b816040516106b79190610ce8565b60405180910390a150565b60008060009054906101000a900473ffffffffffffffffffffffffffffffffffffffff16905090565b60046020528060005260406000206000915090505481565b7fd5269418e5a2b45e710169d2c4b95243f38cee4ca6044cb91d8636dc4d01dd8a346040516107329190610ce8565b60405180910390a1565b610744610a92565b61074d81610bdd565b61078c576040517f08c379a0000000000000000000000000000000000000000000000000000000008152600401610783906110a8565b60405180910390fd5b6000600160009054906101000a900473ffffffffffffffffffffffffffffffffffffffff1673ffffffffffffffffffffffffffffffffffffffff166370a08231306040518263ffffffff1660e01b81526004016107e99190610e88565b602060405180830381865afa158015610806573d6000803e3d6000fd5b505050506040513d601f19601f8201168201806040525081019061082a9190610eb8565b905060004790506000821180156108415750600081115b610880576040517f08c379a000000000000000000000000000000000000000000000000000000000815260040161087790611114565b60405180910390fd5b600254821015801561089457506003548110155b6108d3576040517f08c379a00000000000000000000000000000000000000000000000000000000081526004016108ca90611180565b60405180910390fd5b600160009054906101000a900473ffffffffffffffffffffffffffffffffffffffff1673ffffffffffffffffffffffffffffffffffffffff1663a9059cbb846002546040518363ffffffff1660e01b8152600401610932929190610f62565b6020604051808303816000875af1158015610951573d6000803e3d6000fd5b505050506040513d601f19601f820116820180604052508101906109759190610fc3565b508273ffffffffffffffffffffffffffffffffffffffff166108fc6003549081150290604051600060405180830381858888f193505050501580156109be573d6000803e3d6000fd5b507f257cabc2819094618a6623bf0a2052788948d4bab5bfea00f30c3f62a39cdcb4836002546003546040516109f6939291906111a0565b60405180910390a1610a0783610c80565b505050565b610a14610a92565b600073ffffffffffffffffffffffffffffffffffffffff168173ffffffffffffffffffffffffffffffffffffffff1603610a865760006040517f1e4fbdf7000000000000000000000000000000000000000000000000000000008152600401610a7d9190610e88565b60405180910390fd5b610a8f81610b19565b50565b610a9a610cc7565b73ffffffffffffffffffffffffffffffffffffffff16610ab86106c2565b73ffffffffffffffffffffffffffffffffffffffff1614610b1757610adb610cc7565b6040517f118cdaa7000000000000000000000000000000000000000000000000000000008152600401610b0e9190610e88565b60405180910390fd5b565b60008060009054906101000a900473ffffffffffffffffffffffffffffffffffffffff169050816000806101000a81548173ffffffffffffffffffffffffffffffffffffffff021916908373ffffffffffffffffffffffffffffffffffffffff1602179055508173ffffffffffffffffffffffffffffffffffffffff168173ffffffffffffffffffffffffffffffffffffffff167f8be0079c531659141344cd1fd0a4f28419497f9722a3daafe3b4186f6b6457e060405160405180910390a35050565b600080600460008473ffffffffffffffffffffffffffffffffffffffff1673ffffffffffffffffffffffffffffffffffffffff168152602001908152602001600020541480610c79575062015180600460008473ffffffffffffffffffffffffffffffffffffffff1673ffffffffffffffffffffffffffffffffffffffff1681526020019081526020016000205442610c769190611206565b10155b9050919050565b42600460008373ffffffffffffffffffffffffffffffffffffffff1673ffffffffffffffffffffffffffffffffffffffff1681526020019081526020016000208190555050565b600033905090565b6000819050919050565b610ce281610ccf565b82525050565b6000602082019050610cfd6000830184610cd9565b92915050565b600073ffffffffffffffffffffffffffffffffffffffff82169050919050565b6000819050919050565b6000610d48610d43610d3e84610d03565b610d23565b610d03565b9050919050565b6000610d5a82610d2d565b9050919050565b6000610d6c82610d4f565b9050919050565b610d7c81610d61565b82525050565b6000602082019050610d976000830184610d73565b92915050565b600080fd5b610dab81610ccf565b8114610db657600080fd5b50565b600081359050610dc881610da2565b92915050565b60008060408385031215610de557610de4610d9d565b5b6000610df385828601610db9565b9250506020610e0485828601610db9565b9150509250929050565b6000610e1982610d03565b9050919050565b610e2981610e0e565b8114610e3457600080fd5b50565b600081359050610e4681610e20565b92915050565b600060208284031215610e6257610e61610d9d565b5b6000610e7084828501610e37565b91505092915050565b610e8281610e0e565b82525050565b6000602082019050610e9d6000830184610e79565b92915050565b600081519050610eb281610da2565b92915050565b600060208284031215610ece57610ecd610d9d565b5b6000610edc84828501610ea3565b91505092915050565b600082825260208201905092915050565b7f4661756365743a20555344542062616c616e636520697320656d707479000000600082015250565b6000610f2c601d83610ee5565b9150610f3782610ef6565b602082019050919050565b60006020820190508181036000830152610f5b81610f1f565b9050919050565b6000604082019050610f776000830185610e79565b610f846020830184610cd9565b9392505050565b60008115159050919050565b610fa081610f8b565b8114610fab57600080fd5b50565b600081519050610fbd81610f97565b92915050565b600060208284031215610fd957610fd8610d9d565b5b6000610fe784828501610fae565b91505092915050565b7f4661756365743a2045746865722062616c616e636520697320656d7074790000600082015250565b6000611026601e83610ee5565b915061103182610ff0565b602082019050919050565b6000602082019050818103600083015261105581611019565b9050919050565b7f4661756365743a206e6578742074696d6520696e20323420686f757273000000600082015250565b6000611092601d83610ee5565b915061109d8261105c565b602082019050919050565b600060208201905081810360008301526110c181611085565b9050919050565b7f4661756365743a2062616c616e636520697320656d7074790000000000000000600082015250565b60006110fe601883610ee5565b9150611109826110c8565b602082019050919050565b6000602082019050818103600083015261112d816110f1565b9050919050565b7f4661756365743a2062616c616e6365206973206e6f7420656e6f756768000000600082015250565b600061116a601d83610ee5565b915061117582611134565b602082019050919050565b600060208201905081810360008301526111998161115d565b9050919050565b60006060820190506111b56000830186610e79565b6111c26020830185610cd9565b6111cf6040830184610cd9565b949350505050565b7f4e487b7100000000000000000000000000000000000000000000000000000000600052601160045260246000fd5b600061121182610ccf565b915061121c83610ccf565b9250828203905081811115611234576112336111d7565b5b9291505056fea264697066735822122082162fbce5e56fb7ac0a68ec891fd79123f849dffc43a120e2f1bf22789cf58b64736f6c63430008170033",
  "linkReferences": {},
  "deployedLinkReferences": {}
}